:100000000C9434000C9440000C943E000C943E0080
:100010000C943E000C943E000C943E000C943E0068
:100020000C943E000C943E000C943E000C943E0058
:100030000C943E000C943E000C943E000C943E0048
:100040000C943E000C943E000C943E000C943E0038
:100050000C943E000C943E000C943E000C943E0028
:100060000C943E000C943E0011241FBECFEFD8E04C
:10007000DEBFCDBF0E945D000C9477000C940000A1
:100080001F920F920FB60F9211242F933F938F93CD
:100090009F932D9A2AEA36EE86E991E0215030406E
:1000A00080409040D9F700009F918F913F912F9110
:1000B0000F900FBE0F901F9018957894529884B1AE
:1000C000806384B9E89AE9E6F0E080818360808308
:1000D00090E12D9885B1892785B92FEF33ED80E325
:1000E000215030408040E1F700C00000F2CFF8948A
:0200F000FFCF40
:00000001FF
