S01500004D6F64756C61725F74696D65722E73726563BB
S11300000C9434000C943E000C943E000C943E007E
S11300100C943E000C943E000C943E000C943E0064
S11300200C943E000C943E000C943E000C943E0054
S11300300C943E000C943E000C943E000C943E0044
S11300400C943E000C943E000C943E000C943E0034
S11300500C943E000C943E000C943E000C943E0024
S11300600C943E000C943E0011241FBECFEFD8E048
S1130070DEBFCDBF0E945C000C9468000C940000AD
S113008016BC89EF87BD84B5826084BD84B58E7F3C
S113009084BD85B5836085BD85B58B7F85BD089599
S11300A09C0121503109892B31F0A99BFECFA99ADB
S11300B021503109D0F70895259A0E944000C0E2EA
S11300C085B18C2785B988E893E10E945000F8CF68
S10700D0F894FFCFCE
S9030000FC
