:100000000C9434000C9449000C9449000C94490061
:100010000C9449000C9449000C9449000C9449003C
:100020000C9449000C9449000C9449000C9449002C
:100030000C9449000C9449000C9449000C9449001C
:100040000C9449000C9449000C9449000C9449000C
:100050000C9449000C9449000C9449000C944900FC
:100060000C9449000C94490011241FBECFEFD8E036
:10007000DEBFCDBF11E0A0E0B1E0EEEAFAE002C0E1
:1000800005900D92A435B107D9F70E944B000C944E
:1000900055050C940000CF93DF93CDB7DEB72C97B6
:1000A0000FB6F894DEBF0FBECDBF0E94830284B1AD
:1000B0008C6284B924982A9A539A81E58CBD2FEFDB
:1000C00081EE94E0215080409040E1F700C00000B4
:1000D0002A9880ED8EBD0DB407FEFDCF8EB51EBCF7
:1000E0000DB407FEFDCF8EB52A9AAFE3BCE9119798
:1000F000F1F700C000002A9884E78EBD0DB407FE1A
:10010000FDCF8EB587E28EBD0DB407FEFDCF8EB557
:100110002A9A8FE39CE90197F1F700C000002A9822
:1001200084EF8EBD0DB407FEFDCF8EB51EBC0DB4A1
:1001300007FEFDCF9EB599832A9A80E091E00E9448
:100140009702A9816A2F70E080E090E00E94A602E9
:100150008AE00E948F022A9888E88EBD0DB407FEBF
:10016000FDCF8EB51EBC0DB407FEFDCFAEB41EBCD8
:100170000DB407FEFDCF2EB51EBC0DB407FEFDCF9E
:10018000CEB41EBC0DB407FEFDCF9EB51EBC0DB493
:1001900007FEFDCFEEB41EBC0DB407FEFDCF8EB53D
:1001A0002A9AB12CB22AD12CD92AF12CF82A8CE027
:1001B00091E00E949702B50180E090E00E94A602C3
:1001C0008AE00E948F0287E191E00E949702DD2081
:1001D00074F48DE20E948F02662777276C197D09DF
:1001E000072E000C880B990B0E94A60207C0B601CF
:1001F0000D2C000C880B990B0E94A6028AE00E942D
:100200008F0282E291E00E949702FF2074F48DE257
:100210000E948F02662777276E197F09072E000C30
:10022000880B990B0E94A60207C0B7010F2C000C87
:10023000880B990B0E94A6028AE00E948F02C501DA
:10024000A0E0B0E089839A83AB83BC83C601DD0C58
:10025000AA0BBB0B8D839E83AF83B887C701FF0CAE
:10026000AA0BBB0B89879A87AB87BC872A989AEF22
:100270009EBD0DB407FEFDCF8EB51EBC0DB407FEAE
:10028000FDCF8EB590E0A0E0B0E01EBC0DB407FE3F
:10029000FDCF4EB550E060E070E01EBC0DB407FE2F
:1002A000FDCF2EB52A9A072E7CE0880F991FAA1F32
:1002B000BB1F7A95D1F7702D440F551F661F771F0E
:1002C000440F551F661F771F440F551F661F771F6A
:1002D000440F551F661F771F842B952BA62BB72B1A
:1002E000422F50E060E070E0689413F876956795CF
:1002F000579547951694D1F76C017D01C42AD52AEC
:10030000E62AF72A8DE291E00E949702C701B60122
:100310000E94A6028AE00E948F02C701B6010E94D5
:10032000D8036B017C0169817A818B819C810E9459
:10033000D8034B015C0120E030E040E858E3C701FE
:10034000B6010E9466042B013C0120E030E040E849
:100350005AE3C501B4010E9466049B01AC01C301CC
:10036000B2010E94C3022B013C016D817E818F810D
:1003700098850E94DA039B01AC01C301B2010E947F
:1003800066042B013C0120E030E040E057E3C70168
:10039000B6010E9466046B017C0120E030E040E081
:1003A00059E3C501B4010E9466049B01AC01C70179
:1003B000B6010E94C3029B01AC010E9466046B015E
:1003C0007C0169857A858B859C850E94DA039B0177
:1003D000AC01C701B6010E9466044B015C019B01A0
:1003E000AC01C301B2010E94C4026B017C0188E32D
:1003F00091E00E949702C301B2010E94A9030E94EA
:10040000A6028AE00E948F028FE391E00E94970289
:10041000C501B4010E94A9030E94A6028AE00E94BD
:100420008F0286E491E00E949702C701B6010E9404
:10043000A9030E94A6028AE00E948F0220E030E019
:1004400040EA55E4C701B6010E94300320E030E0E5
:1004500048EC52E40E9466040E94A20324E630E0C5
:1004600040E050E00E94D30449015A0189019A01F9
:100470006B017C0199233CF4CC24DD247601C61A5F
:10048000D70AE80AF90A33238CF41C141D041E044D
:100490001F0464F48DE20E948F0266277727681993
:1004A000790980E090E00E94A60206C0C501B4016F
:1004B000882799270E94A6028EE20E948F02AAE056
:1004C000CA16D104E104F10454F480E30E948F02BF
:1004D000C701B601882799270E94A60206C0C70156
:1004E000B601882799270E94A6028FE491E00E9416
:1004F0009702BFEF23ED80E3B15020408040E1F749
:1005000000C00000B3CE1092C50087E68093C400FF
:1005100088E08093C10086E08093C2000895E0ECFB
:10052000F0E0908195FFFDCF8093C6000895CF93B2
:10053000DF93EC018881882331F021960E948F029D
:1005400089918111FBCFDF91CF910895CF93DF93F4
:10055000CDB7DEB72C970FB6F894DEBF0FBECDBF78
:100560002AE0AE014F5F5F4F0E941405CE01019655
:100570000E9497022C960FB6F894DEBF0FBECDBF37
:10058000DF91CF9108955058BB27AA270E94DB0224
:100590000C942C040E941E0438F00E94250420F0C4
:1005A00039F49F3F19F426F40C941B040EF4E095E3
:1005B000E7FB0C941504E92F0E943D0458F3BA1789
:1005C000620773078407950720F079F4A6F50C9469
:1005D0005F040EF4E0950B2EBA2FA02D0B01B9018C
:1005E00090010C01CA01A0011124FF27591B99F0A9
:1005F000593F50F4503E68F11A16F040A22F232FB5
:10060000342F4427585FF3CF469537952795A79504
:10061000F0405395C9F77EF41F16BA0B620B730BAB
:10062000840BBAF09150A1F0FF0FBB1F661F771F1C
:10063000881FC2F70EC0BA0F621F731F841F48F4D1
:10064000879577956795B795F7959E3F08F0B0CF5A
:100650009395880F08F09927EE0F97958795089541
:100660000E9444030C942C040E94250458F00E941C
:100670001E0440F029F45F3F29F00C941504511139
:100680000C9460040C941B040E943D0468F39923AD
:10069000B1F3552391F3951B550BBB27AA2762177E
:1006A0007307840738F09F5F5F4F220F331F441F8B
:1006B000AA1FA9F335D00E2E3AF0E0E832D09150BF
:1006C0005040E695001CCAF72BD0FE2F29D0660FAC
:1006D000771F881FBB1F261737074807AB07B0E8EF
:1006E00009F0BB0B802DBF01FF2793585F4F3AF0F5
:1006F0009E3F510578F00C9415040C9460045F3F04
:10070000E4F3983ED4F3869577956795B795F7957A
:100710009F5FC9F7880F911D9695879597F9089562
:10072000E1E0660F771F881FBB1F621773078407FE
:10073000BA0720F0621B730B840BBA0BEE1F88F70D
:10074000E09508950E94A9036894B1110C94600487
:1007500008950E94450488F09F5798F0B92F992773
:10076000B751B0F0E1F0660F771F881F991F1AF09C
:10077000BA95C9F714C0B13091F00E945F04B1E09E
:1007800008950C945F04672F782F8827B85F39F09D
:10079000B93FCCF3869577956795B395D9F73EF435
:1007A00090958095709561957F4F8F4F9F4F0895DD
:1007B000E89409C097FB3EF49095809570956195FB
:1007C0007F4F8F4F9F4F9923A9F0F92F96E9BB27B1
:1007D0009395F695879577956795B795F111F8CF2D
:1007E000FAF4BB0F11F460FF1BC06F5F7F4F8F4F98
:1007F0009F4F16C0882311F096E911C0772321F08E
:100800009EE8872F762F05C0662371F096E8862F25
:1008100070E060E02AF09A95660F771F881FDAF77C
:10082000880F9695879597F9089597F99F6780E8BF
:1008300070E060E008959FEF80EC089500240A9432
:100840001616170618060906089500240A941216AB
:100850001306140605060895092E0394000C11F4DE
:10086000882352F0BB0F40F4BF2B11F460FF04C08B
:100870006F5F7F4F8F4F9F4F089557FD9058440FE4
:10088000551F59F05F3F71F04795880F97FB991FEF
:1008900061F09F3F79F087950895121613061406AC
:1008A000551FF2CF4695F1DF08C016161706180639
:1008B000991FF1CF86957105610508940895E89414
:1008C000BB2766277727CB0197F908950E94790403
:1008D0000C942C040E941E0438F00E94250420F081
:1008E000952311F00C9415040C941B0411240C9402
:1008F00060040E943D0470F3959FC1F3950F50E092
:10090000551F629FF001729FBB27F00DB11D639FC1
:10091000AA27F00DB11DAA1F649F6627B00DA11D67
:10092000661F829F2227B00DA11D621F739FB00D0D
:10093000A11D621F839FA00D611D221F749F33277D
:10094000A00D611D231F849F600D211D822F762F16
:100950006A2F11249F5750409AF0F1F088234AF0F3
:10096000EE0FFF1FBB1F661F771F881F915050405F
:10097000A9F79E3F510580F00C9415040C94600477
:100980005F3FE4F3983ED4F3869577956795B795E6
:10099000F795E7959F5FC1F7FE2B880F911D969500
:1009A000879597F90895052E97FB1EF400940E94F1
:1009B000EA0457FD07D00E94F20407FC03D04EF46E
:1009C0000C94EA0450954095309521953F4F4F4F38
:1009D0005F4F089590958095709561957F4F8F4FEB
:1009E0009F4F0895A1E21A2EAA1BBB1BFD010DC04B
:1009F000AA1FBB1FEE1FFF1FA217B307E407F507CF
:100A000020F0A21BB30BE40BF50B661F771F881FAA
:100A1000991F1A9469F760957095809590959B0140
:100A2000AC01BD01CF010895BB272A3051F49923B1
:100A300042F4BDE290958095709561957F4F8F4F00
:100A40009F4F0C942405BB27FA01A62F621771054E
:100A500081059105330B30FB66F0AA27660F771FDF
:100A6000881F991FAA1FA21710F0A21B6395385068
:100A7000A9F7A05DAA3308F0A95DA19336F7B111DB
:100A8000B1931082CA010C944505DC01FC01672F6B
:100A900071917723E1F7329704C07C916D93708355
:0E0AA0006291AE17BF07C8F30895F894FFCF18
:100AAE004354524C5F4D4541533A200043616C69AB
:100ABE00622054313A200043616C69622054323A0C
:100ACE00200043616C69622054333A2000526177F2
:100ADE002054656D703A2000766172313A200076AE
:100AEE006172323A2000745F66696E653A200020AA
:040AFE00430A0000A7
:00000001FF
