:100000000C9434000C943E000C943E000C943E0082
:100010000C943E000C943E000C943E000C943E0068
:100020000C943E000C943E000C943E000C943E0058
:100030000C943E000C943E000C943E000C943E0048
:100040000C943E000C943E000C943E000C943E0038
:100050000C943E000C943E000C943E000C943E0028
:100060000C943E000C943E0011241FBECFEFD8E04C
:10007000DEBFCDBF0E9448000C945F000C940000CE
:1000800084E690E0A99BFECFA99A0197D9F708953D
:1000900016BC8CE987BD84B5826084BD84B58E7F33
:1000A00084BD85B5856085BD85B58D7F85BD259A67
:1000B000C0E285B18C2785B90E944000FACFF89440
:0200C000FFCF70
:00000001FF
