S015000054696D6572305F4E6F726D616C2E7372656316
S11300000C9434000C943E000C943E000C943E007E
S11300100C943E000C943E000C943E000C943E0064
S11300200C943E000C943E000C943E000C943E0054
S11300300C943E000C943E000C943E000C943E0044
S11300400C943E000C943E000C943E000C943E0034
S11300500C943E000C943E000C943E000C943E0024
S11300600C943E000C943E0011241FBECFEFD8E048
S1130070DEBFCDBF0E945E000C9466000C940000AD
S113008016BC84B58E7F84BD84B58D7F84BD85B553
S1130090877F85BD85B58B7F85BD85B58D7F85BD06
S11300A085B5816085BD80E090E0A89BFECFA89ACD
S11300B00196843224EF9207C1F70895259AC0E28D
S11300C085B18C2785B90E944000FACFF894FFCF00
S9030000FC
