S0110000554152545F54585F312E737265633C
S11300000C9434000C943E000C943E000C943E007E
S11300100C943E000C943E000C943E000C943E0064
S11300200C943E000C943E000C943E000C943E0054
S11300300C943E000C943E000C943E000C943E0044
S11300400C943E000C943E000C943E000C943E0034
S11300500C943E000C943E000C943E000C943E0024
S11300600C943E000C943E0011241FBECFEFD8E048
S1130070DEBFCDBF0E9440000C9465000C940000CC
S11300801092C50087E68093C400E2ECF0E0808122
S1130090866080838081877C8083E1ECF0E08081CE
S11300A088608083A6ECB0E091E4E0ECF0E09C93FF
S11300B0808185FFFDCF2FEF33ED80E32150304069
S11100C08040E1F700C00000F2CFF894FFCFBB
S9030000FC
