S010000064635F6D6F746F722E73726563BD
S11300000C9434000C943E000C943E000C943E007E
S11300100C943E000C943E000C943E000C943E0064
S11300200C943E000C943E000C943E000C943E0054
S11300300C943E000C943E000C943E000C943E0044
S11300400C943E000C943E000C943E000C943E0034
S11300500C943E000C943E000C943E000C943E0024
S11300600C943E000C943E0011241FBECFEFD8E048
S1130070DEBFCDBF0E9440000C9470000C940000C1
S11300808AB18C608AB95A9A5B982FEF83E294EF15
S1130090215080409040E1F700C000005A985B98DE
S11300A02FEF8BE792E9215080409040E1F700C0A8
S11300B000005A985B9A2FEF83E294EF215080401E
S11300C09040E1F700C000005A985B982FEF8BE74F
S11300D092E9215080409040E1F700C00000D3CF66
S10700E0F894FFCFBE
S9030000FC
