S00C00006C6D33352E73726563D7
S11300000C9434000C9449000C9449000C9449005D
S11300100C9449000C9449000C9449000C94490038
S11300200C9449000C9449000C9449000C94490028
S11300300C9449000C9449000C9449000C94490018
S11300400C9449000C9449000C9449000C94490008
S11300500C9449000C9449000C9449000C944900F8
S11300600C9449000C94490011241FBECFEFD8E032
S1130070DEBFCDBF11E0A0E0B1E0E2E3F7E002C0F3
S113008005900D92A031B107D9F70E948F010C940D
S113009097030C9400009BB1937C9BB983FD5A9AFF
S11300A082FD5B9A81FD5C9A80FD5D9A2B9A85E0C6
S11300B08A95F1F700002B9887EC90E00197F1F70F
S11300C000C000000895CF93C82F2C9882958F709C
S11300D00E944B008C2F8F700E944B00C150C23085
S11300E030F48FE39FE10197F1F700C00000CF9156
S11300F00895CF93C82F2C9A82958F700E944B003D
S11301008C2F8F700E944B00CF910895811102C0F3
S113011090E001C090E4862F8F70890F80680E9460
S113012063000895CF93DF93EC018881882331F035
S113013021960E94790089918111FBCFDF91CF91A3
S1130140089581E00E9463000895249A239A8AB155
S11301508C638AB92FEF89EF90E021508040904062
S1130160E1F700C000002C982B9883E00E944B001C
S11301708FE19EE40197F1F700C0000083E00E9444
S11301804B0087E592E00197F1F700C0000083E09F
S11301900E944B0087E592E00197F1F700C0000050
S11301A082E00E944B0087E592E00197F1F700C0DE
S11301B0000088E20E94630088E00E94630081E0FE
S11301C00E94630086E00E9463008CE00E9463004A
S11301D00895CF93DF93EC018A30910568F09C0178
S11301E0ADECBCEC0E94880396958795969587950F
S11301F0969587950E94E9009E01ADECBCEC0E94A7
S113020088039695879596958795969587959C01ED
S1130210220F331F880F991F880F991F880F991F6A
S1130220820F931F9E01281B390BC901805D0E9418
S11302307900DF91CF9108958F929F92AF92BF92F0
S1130240CF92DF92EF92FF924B015C0120E030E00D
S1130250A9010E94350288233CF48DE20E947900B2
S1130260B7FAB094B7F8B094C501B4010E943A0249
S11302706B017C01CB010E94E9008EE20E947900AF
S1130280B60180E090E00E9469029B01AC01C501C7
S1130290B4010E94C80120E030E048EC52E40E941E
S11302A01B0320E030E040E05FE30E94C9010E94AC
S11302B03A026B017C018AE0C816D10418F480E389
S11302C00E947900C6010E94E900FF90EF90DF9040
S11302D0CF90BF90AF909F908F900895ECE7F0E09F
S11302E0808180648083EAE7F0E08081876880838E
S11302F00895ECE7F0E09081907F8770892B8083EC
S1130300EAE7F0E0808180648083808186FDFDCF10
S1130310809178002091790090E0922B08950E94BA
S1130320A5000E946E0180E00E947901EC010E9408
S1130330A10060E070E080E090E00E94860080E030
S113034091E00E94920060E070E081E090E00E9401
S11303508600BE0180E090E00E94690223E23BED4A
S113036049EF5EE30E941B030E941C018FED90E0A5
S11303700E9479008DE091E00E9492002FEF89E6BF
S113038098E1215080409040E1F700C00000CBCFBD
S11303905058BB27AA270E94E0010C94E1020E9456
S11303A0D30238F00E94DA0220F039F49F3F19F4A6
S11303B026F40C94D0020EF4E095E7FB0C94CA02E8
S11303C0E92F0E94F20258F3BA17620773078407F1
S11303D0950720F079F4A6F50C9414030EF4E09537
S11303E00B2EBA2FA02D0B01B90190010C01CA01EB
S11303F0A0011124FF27591B99F0593F50F4503E96
S113040068F11A16F040A22F232F342F4427585F87
S1130410F3CF469537952795A795F0405395C9F79F
S11304207EF41F16BA0B620B730B840BBAF0915057
S1130430A1F0FF0FBB1F661F771F881FC2F70EC0F6
S1130440BA0F621F731F841F48F4879577956795C9
S1130450B795F7959E3F08F0B0CF9395880F08F0B5
S11304609927EE0F9795879508950E94A60208F4A0
S113047081E008950E94FA0288F09F5798F0B92FFE
S11304809927B751B0F0E1F0660F771F881F991FC5
S11304901AF0BA95C9F714C0B13091F00E94140350
S11304A0B1E008950C941403672F782F8827B85F60
S11304B039F0B93FCCF3869577956795B395D9F71D
S11304C03EF490958095709561957F4F8F4F9F4F27
S11304D00895E89409C097FB3EF490958095709533
S11304E061957F4F8F4F9F4F9923A9F0F92F96E97C
S11304F0BB279395F695879577956795B795F111F1
S1130500F8CFFAF4BB0F11F460FF1BC06F5F7F4F8D
S11305108F4F9F4F16C0882311F096E911C077239F
S113052021F09EE8872F762F05C0662371F096E8A8
S1130530862F70E060E02AF09A95660F771F881F77
S1130540DAF7880F9695879597F90895990F00081B
S1130550550FAA0BE0E8FEEF16161706E807F90791
S1130560C0F012161306E407F50798F0621B730B2C
S1130570840B950B39F40A2661F0232B242B252BAD
S113058021F408950A2609F4A140A6958FEF811D50
S1130590811D089597F99F6780E870E060E00895F1
S11305A09FEF80EC089500240A9416161706180687
S11305B00906089500240A94121613061406050663
S11305C00895092E0394000C11F4882352F0BB0FF4
S11305D040F4BF2B11F460FF04C06F5F7F4F8F4F57
S11305E09F4F089557FD9058440F551F59F05F3F92
S11305F071F04795880F97FB991F61F09F3F79F041
S113060087950895121613061406551FF2CF4695C2
S1130610F1DF08C0161617061806991FF1CF869544
S11306207105610508940895E894BB276627772728
S1130630CB0197F908950E942E030C94E1020E94C5
S1130640D30238F00E94DA0220F0952311F00C94C2
S1130650CA020C94D00211240C9415030E94F202D5
S113066070F3959FC1F3950F50E0551F629FF00101
S1130670729FBB27F00DB11D639FAA27F00DB11D1A
S1130680AA1F649F6627B00DA11D661F829F2227A3
S1130690B00DA11D621F739FB00DA11D621F839F2A
S11306A0A00D611D221F749F3327A00D611D231F00
S11306B0849F600D211D822F762F6A2F11249F574E
S11306C050409AF0F1F088234AF0EE0FFF1FBB1F51
S11306D0661F771F881F91505040A9F79E3F510510
S11306E080F00C94CA020C9415035F3FE4F3983E27
S11306F0D4F3869577956795B795F795E7959F5FBA
S1130700C1F7FE2B880F911D9695879597F908954B
S1130710A29FB001B39FC001A39F700D811D11243E
S1130720911DB29F700D811D1124911D0895F8949F
S1050730FFCFF5
S113073254656D70657261747572653A00430000A8
S9030000FC
