S00E0000424D503238302E737265639D
S11300000C9434000C9449000C9449000C9449005D
S11300100C9449000C9449000C9449000C94490038
S11300200C9449000C9449000C9449000C94490028
S11300300C9449000C9449000C9449000C94490018
S11300400C9449000C9449000C9449000C94490008
S11300500C9449000C9449000C9449000C944900F8
S11300600C9449000C94490011241FBECFEFD8E032
S1130070DEBFCDBF11E0A0E0B1E0ECE4F8E002C0E7
S113008005900D92A030B107D9F70E944B000C9453
S113009024040C9400000E946B0184B18C6284B926
S11300A024988CB581658CBD8CB5817F8CBD10ED99
S11300B004E72A981EBD0DB407FEFDCF8EB51EBC05
S11300C00DB407FEFDCF8EB52A9A2A980EBD0DB445
S11300D007FEFDCF8EB527E22EBD0DB407FEFDCF82
S11300E08EB52A9A2A988AEF8EBD0DB407FEFDCFED
S11300F08EB51EBC0DB407FEFDCF4EB51EBC0DB4AF
S113010007FEFDCF8EB51EBC0DB407FEFDCF2EB588
S113011050E060E070E0032E3CE0440F551F661F82
S1130120771F3A95D1F7302D90E0A0E0B0E0880F2A
S1130130991FAA1FBB1F880F991FAA1FBB1F880FD7
S1130140991FAA1FBB1F880F991FAA1FBB1F842BAF
S1130150952BA62BB72B22952F70BC01CD01622BBA
S11301602A9A2A9828E82EBD0DB407FEFDCF2EB595
S11301701EBC0DB407FEFDCF3EB41EBC0DB407FE7D
S1130180FDCF2EB41EBC0DB407FEFDCFEEB41EBCD5
S11301900DB407FEFDCFFEB41EBC0DB407FEFDCFAB
S11301A0CEB51EBC0DB407FEFDCFDEB52A9A0E9463
S11301B0C0024B015C016E2D70E07F2980E090E06D
S11301C00E94C0026B017C0120E030E040E858E36B
S11301D0C501B4010E944E032B013C01632D70E064
S11301E0722980E090E00E94C00220E030E040E804
S11301F05AE30E944E039B01AC01C301B2010E9469
S1130200AB01A70196010E944E032B013C0120E0A3
S113021030E040E057E3C501B4010E944E034B01B6
S11302205C0120E030E040E059E3C701B6010E94E0
S11302304E039B01AC01C501B4010E94AB016B01EB
S11302407C016C2F70E0CB019D2BBC01990F880BB6
S1130250990B0E94C2029B01AC01C701B6010E9426
S11302604E039B01AC01C301B2010E94AC0120E02A
S113027030E342EA55E40E94180220E030E048EC02
S113028052E40E944E030E948A02CB0164E670E0AD
S11302900E94BB03C82F70E080E090E00E948E01B2
S11302A08EE20E947701CA3018F480E30E9477013D
S11302B06C2F70E080E090E00E948E018AE00E9442
S11302C077019FEF23ED80E3915020408040E1F7D8
S11302D000C00000EECE1092C50087E68093C400F3
S11302E088E08093C10086E08093C2000895E0EC2A
S11302F0F0E0908195FFFDCF8093C6000895CF93E1
S1130300DF93EC018881882331F021960E947701E4
S113031089918111FBCFDF91CF910895CF93DF9322
S1130320CDB7DEB72C970FB6F894DEBF0FBECDBFA6
S11303302AE0AE014F5F5F4F0E94E303CE010196B6
S11303400E947F012C960FB6F894DEBF0FBECDBF7E
S1130350DF91CF9108955058BB27AA270E94C3016B
S11303600C9414030E94060338F00E940D0320F03D
S113037039F49F3F19F426F40C9403030EF4E0952A
S1130380E7FB0C94FD02E92F0E94250358F3BA17EA
S1130390620773078407950720F079F4A6F50C9497
S11303A047030EF4E0950B2EBA2FA02D0B01B901D3
S11303B090010C01CA01A0011124FF27591B99F0D7
S11303C0593F50F4503E68F11A16F040A22F232FE3
S11303D0342F4427585FF3CF469537952795A79533
S11303E0F0405395C9F77EF41F16BA0B620B730BDA
S11303F0840BBAF09150A1F0FF0FBB1F661F771F4B
S1130400881FC2F70EC0BA0F621F731F841F48F4FF
S1130410879577956795B795F7959E3F08F0B0CF88
S11304209395880F08F09927EE0F9795879508956F
S11304300E942C020C9414030E940D0358F00E9495
S1130440060340F029F45F3F29F00C94FD0251119A
S11304500C9448030C9403030E94250368F3992326
S1130460B1F3552391F3951B550BBB27AA276217AC
S11304707307840738F09F5F5F4F220F331F441FB9
S1130480AA1FA9F335D00E2E3AF0E0E832D09150ED
S11304905040E695001CCAF72BD0FE2F29D0660FDA
S11304A0771F881FBB1F261737074807AB07B0E81D
S11304B009F0BB0B802DBF01FF2793585F4F3AF023
S11304C09E3F510578F00C94FD020C9448035F3F65
S11304D0E4F3983ED4F3869577956795B795F795A9
S11304E09F5FC9F7880F911D9695879597F9089591
S11304F0E1E0660F771F881FBB1F6217730784072D
S1130500BA0720F0621B730B840BBA0BEE1F88F73B
S1130510E09508950E9491026894B1110C944803E7
S113052008950E942D0388F09F5798F0B92F9927BA
S1130530B751B0F0E1F0660F771F881F991F1AF0CA
S1130540BA95C9F714C0B13091F00E944703B1E0E5
S113055008950C944703672F782F8827B85F39F0E4
S1130560B93FCCF3869577956795B395D9F73EF463
S113057090958095709561957F4F8F4F9F4F08950B
S1130580E89409C097FB3EF4909580957095619529
S11305907F4F8F4F9F4F9923A9F0F92F96E9BB27DF
S11305A09395F695879577956795B795F111F8CF5B
S11305B0FAF4BB0F11F460FF1BC06F5F7F4F8F4FC6
S11305C09F4F16C0882311F096E911C0772321F0BC
S11305D09EE8872F762F05C0662371F096E8862F54
S11305E070E060E02AF09A95660F771F881FDAF7AB
S11305F0880F9695879597F9089597F99F6780E8EE
S113060070E060E008959FEF80EC089500240A9460
S11306101616170618060906089500240A941216D9
S11306201306140605060895092E0394000C11F40C
S1130630882352F0BB0F40F4BF2B11F460FF04C0B9
S11306406F5F7F4F8F4F9F4F089557FD9058440F12
S1130650551F59F05F3F71F04795880F97FB991F1D
S113066061F09F3F79F087950895121613061406DA
S1130670551FF2CF4695F1DF08C016161706180667
S1130680991FF1CF86957105610508940895E89442
S1130690BB2766277727CB0197F908950E9461034A
S11306A00C9414030E94060338F00E940D0320F0FA
S11306B0952311F00C94FD020C94030311240C9463
S11306C048030E94250370F3959FC1F3950F50E0F2
S11306D0551F629FF001729FBB27F00DB11D639FF0
S11306E0AA27F00DB11DAA1F649F6627B00DA11D96
S11306F0661F829F2227B00DA11D621F739FB00D3C
S1130700A11D621F839FA00D611D221F749F3327AB
S1130710A00D611D231F849F600D211D822F762F44
S11307206A2F11249F5750409AF0F1F088234AF021
S1130730EE0FFF1FBB1F661F771F881F915050408D
S1130740A9F79E3F510580F00C94FD020C944803D8
S11307505F3FE4F3983ED4F3869577956795B79514
S1130760F795E7959F5FC1F7FE2B880F911D96952E
S1130770879597F9089597FB072E16F4009407D0F0
S113078077FD09D00E94CF0307FC05D03EF4909575
S113079081959F4F0895709561957F4F0895AA1B89
S11307A0BB1B51E107C0AA1FBB1FA617B70710F058
S11307B0A61BB70B881F991F5A95A9F7809590958A
S11307C0BC01CD010895BB272A3051F4992342F48A
S11307D0BDE290958095709561957F4F8F4F9F4FA7
S11307E00C94F303BB27FA01A62F62177105810548
S11307F09105330B30FB66F0AA27660F771F881F1D
S1130800991FAA1FA21710F0A21B63953850A9F7CD
S1130810A05DAA3308F0A95DA19336F7B111B19395
S11308201082CA010C941404DC01FC01672F71913D
S11308307723E1F7329704C07C916D9370836291C2
S10F0840AE17BF07C8F30895F894FFCF6B
S9030000FC
