S01000004443204D6F746F722E737265635C
S11300000C9434000C943E000C943E000C943E007E
S11300100C943E000C943E000C943E000C943E0064
S11300200C943E000C943E000C943E000C943E0054
S11300300C943E000C943E000C943E000C943E0044
S11300400C943E000C943E000C943E000C943E0034
S11300500C943E000C943E000C943E000C943E0024
S11300600C943E000C943E0011241FBECFEFD8E048
S1130070DEBFCDBF0E9440000C9470000C940000C1
S113008084B1806384B92D9A2C982FEF87EA91E686
S1130090215080409040E1F700C000002D982C983A
S11300A02FEF87EA91E6215080409040E1F700C0AD
S11300B000002D982C9A2FEF87EA91E6215080407A
S11300C09040E1F700C000002D982C982FEF87EAAC
S11300D091E6215080409040E1F700C00000D3CF6A
S10700E0F894FFCFBE
S9030000FC
