:100000000C9434000C943E000C943E000C943E0082
:100010000C943E000C943E000C943E000C943E0068
:100020000C943E000C943E000C943E000C943E0058
:100030000C943E000C943E000C943E000C943E0048
:100040000C943E000C943E000C943E000C943E0038
:100050000C943E000C943E000C943E000C943E0028
:100060000C943E000C943E0011241FBECFEFD8E04C
:10007000DEBFCDBF0E9440000C9458000C940000DD
:10008000559A259A84B5816084BD84B58D7F84BDE1
:1000900084B5806284BD84B58F7E84BD85B5836060
:1000A00085BD85B58B7F85BD8FEF88BD2D9AFFCF30
:0400B000F894FFCFF2
:00000001FF
