S01700005377697463685F4443206D6F746F722E7372656364
S11300000C9434000C943E000C943E000C943E007E
S11300100C943E000C943E000C943E000C943E0064
S11300200C943E000C943E000C943E000C943E0054
S11300300C943E000C943E000C943E000C943E0044
S11300400C943E000C943E000C943E000C943E0034
S11300500C943E000C943E000C943E000C943E0024
S11300600C943E000C943E0011241FBECFEFD8E048
S1130070DEBFCDBF0E9449000C9460000C940000C8
S11300802C9A2D9808952C982D9808952C982D9A93
S113009008958AB1837F8AB984B1806384B94A9B05
S11300A005C04B9903C00E944000F9CF4B9B05C08B
S11300B04A9903C00E944600F2CF0E944300EFCF4A
S10700C0F894FFCFDE
S9030000FC
