:100000000C9434000C943E000C943E000C943E0082
:100010000C943E000C943E000C943E000C943E0068
:100020000C943E000C943E000C943E000C943E0058
:100030000C943E000C943E000C943E000C943E0048
:100040000C943E000C943E000C943E000C943E0038
:100050000C943E000C943E000C943E000C943E0028
:100060000C943E000C943E0011241FBECFEFD8E04C
:10007000DEBFCDBF0E9440000C946F000C940000C6
:10008000569A84B5816084BD84B58D7F84BD84B566
:10009000806884BD85B58F7B85BD85B58B7F85BD2B
:1000A00085B58E7F85BD85B5826085BD80E090E099
:1000B00087BDEFE3FCE93197F1F700C0000001963E
:1000C0008115F1E09F07A1F78FEF87BDEFE3FCE912
:1000D0003197F1F700C000008150B9F7E7CFF894ED
:0200E000FFCF50
:00000001FF
