S018000054696D6572305F496E746572727570742E73726563AF
S11300000C9434000C9446000C9446000C94460066
S11300100C9446000C9446000C9446000C94460044
S11300200C9446000C9446000C9446000C94460034
S11300300C9446000C9446000C9446000C94460024
S11300400C9448000C9446000C9446000C94460012
S11300500C9446000C9446000C9446000C94460004
S11300600C9446000C94460011241FBECFEFD8E038
S1130070DEBFCDBF21E0A0E0B1E001C01D92A230FF
S1130080B207E1F70E9471000C9483000C94000005
S11300901F920F920FB60F9211242F938F939F9359
S11300A08091000190910101823D934048F095B107
S11300B080E2892785B9109201011092000109C0DC
S11300C08091000190910101019690930101809328
S11300D000019F918F912F910F900FBE0F901F9051
S11300E01895259A789416BC84B58E7F84BD85B501
S11300F0836085BD85B58B7F85BDEEE6F0E08081AC
S10D010081608083FFCFF894FFCFE5
S9030000FC
