:100000000C9434000C943E000C943E000C943E0082
:100010000C943E000C943E000C943E000C943E0068
:100020000C943E000C943E000C943E000C943E0058
:100030000C943E000C943E000C943E000C943E0048
:100040000C943E000C943E000C943E000C943E0038
:100050000C943E000C943E000C943E000C943E0028
:100060000C943E000C943E0011241FBECFEFD8E04C
:10007000DEBFCDBF0E9448000C945D000C940000D0
:1000800081ED93E0A89BFECFA89A0197D9F7089538
:1000900016BC84B58E7F84BD84B58D7F84BD85B547
:1000A000836085BD85B58B7F85BD259A2D9A0E947D
:0E00B00040002D980E944000F9CFF894FFCF39
:00000001FF
